{"abi":[{"type":"function","name":"companyTokens","inputs":[{"name":"","type":"uint256","internalType":"uint256"}],"outputs":[{"name":"name","type":"string","internalType":"string"},{"name":"symbol","type":"string","internalType":"string"},{"name":"owner","type":"address","internalType":"address"},{"name":"companyToken","type":"address","internalType":"address"}],"stateMutability":"view"},{"type":"function","name":"companyTokensCount","inputs":[],"outputs":[{"name":"","type":"uint256","internalType":"uint256"}],"stateMutability":"view"},{"type":"function","name":"createCompanyToken","inputs":[{"name":"name","type":"string","internalType":"string"},{"name":"symbol","type":"string","internalType":"string"},{"name":"minRequired","type":"uint256","internalType":"uint256"}],"outputs":[],"stateMutability":"nonpayable"},{"type":"function","name":"getAllCompanyTokens","inputs":[],"outputs":[{"name":"","type":"tuple[]","internalType":"struct CompanyTokenFactory.CompanyTokenData[]","components":[{"name":"name","type":"string","internalType":"string"},{"name":"symbol","type":"string","internalType":"string"},{"name":"owner","type":"address","internalType":"address"},{"name":"companyToken","type":"address","internalType":"address"}]}],"stateMutability":"view"},{"type":"function","name":"getCompanyToken","inputs":[{"name":"tokenId","type":"uint256","internalType":"uint256"}],"outputs":[{"name":"","type":"address","internalType":"address"}],"stateMutability":"view"},{"type":"event","name":"CompanyTokenCreated","inputs":[{"name":"owner","type":"address","indexed":true,"internalType":"address"},{"name":"companyToken","type":"address","indexed":true,"internalType":"address"}],"anonymous":false}],"bytecode":{"object":"0x6080604052348015600f57600080fd5b506134948061001f6000396000f3fe608060405234801561001057600080fd5b50600436106100575760003560e01c80635bf5e1a31461005c5780636d4c6cad14610071578063a80bb9d61461009d578063ba6f1f5b146100b4578063eae8675d146100c9575b600080fd5b61006f61006a366004610633565b61010d565b005b61008461007f3660046106a6565b610228565b6040516100949493929190610705565b60405180910390f35b6100a660015481565b604051908152602001610094565b6100bc61036d565b604051610094919061074f565b6100f56100d73660046106a6565b6000908152602081905260409020600301546001600160a01b031690565b6040516001600160a01b039091168152602001610094565b60008383338460405161011f90610581565b61012c94939291906107fe565b604051809103906000f080158015610148573d6000803e3d6000fd5b5060408051608081018252868152602080820187905233828401526001600160a01b03841660608301526001546000908152908190529190912081519293509091819061019590826108c9565b50602082015160018201906101aa90826108c9565b506040828101516002830180546001600160a01b03199081166001600160a01b03938416179091556060909401516003909301805490941692811692909217909255600180548101905590519082169033907f353c2db01f72ee6abede8b269975994a829d2b04f2dafc7d7963334cfe214f8090600090a350505050565b60006020819052908152604090208054819061024390610840565b80601f016020809104026020016040519081016040528092919081815260200182805461026f90610840565b80156102bc5780601f10610291576101008083540402835291602001916102bc565b820191906000526020600020905b81548152906001019060200180831161029f57829003601f168201915b5050505050908060010180546102d190610840565b80601f01602080910402602001604051908101604052809291908181526020018280546102fd90610840565b801561034a5780601f1061031f5761010080835404028352916020019161034a565b820191906000526020600020905b81548152906001019060200180831161032d57829003601f168201915b50505050600283015460039093015491926001600160a01b039081169216905084565b6060600060015467ffffffffffffffff81111561038c5761038c61058e565b6040519080825280602002602001820160405280156103e157816020015b6040805160808101825260608082526020820181905260009282018390528101919091528152602001906001900390816103aa5790505b5060015490915060005b81811015610579576000818152602081905260409081902081516080810190925280548290829061041b90610840565b80601f016020809104026020016040519081016040528092919081815260200182805461044790610840565b80156104945780601f1061046957610100808354040283529160200191610494565b820191906000526020600020905b81548152906001019060200180831161047757829003601f168201915b505050505081526020016001820180546104ad90610840565b80601f01602080910402602001604051908101604052809291908181526020018280546104d990610840565b80156105265780601f106104fb57610100808354040283529160200191610526565b820191906000526020600020905b81548152906001019060200180831161050957829003601f168201915b505050918352505060028201546001600160a01b039081166020830152600390920154909116604090910152835184908390811061056657610566610988565b60209081029190910101526001016103eb565b509092915050565b612ac08061099f83390190565b634e487b7160e01b600052604160045260246000fd5b600082601f8301126105b557600080fd5b813567ffffffffffffffff8111156105cf576105cf61058e565b604051601f8201601f19908116603f0116810167ffffffffffffffff811182821017156105fe576105fe61058e565b60405281815283820160200185101561061657600080fd5b816020850160208301376000918101602001919091529392505050565b60008060006060848603121561064857600080fd5b833567ffffffffffffffff81111561065f57600080fd5b61066b868287016105a4565b935050602084013567ffffffffffffffff81111561068857600080fd5b610694868287016105a4565b93969395505050506040919091013590565b6000602082840312156106b857600080fd5b5035919050565b6000815180845260005b818110156106e5576020818501810151868301820152016106c9565b506000602082860101526020601f19601f83011685010191505092915050565b60808152600061071860808301876106bf565b828103602084015261072a81876106bf565b6001600160a01b03958616604085015293909416606090920191909152509392505050565b6000602082016020835280845180835260408501915060408160051b86010192506020860160005b828110156107f257603f19878603018452815180516080875261079d60808801826106bf565b9050602082015187820360208901526107b682826106bf565b6040848101516001600160a01b03908116918b019190915260609485015116939098019290925250506020938401939190910190600101610777565b50929695505050505050565b60808152600061081160808301876106bf565b828103602084015261082381876106bf565b6001600160a01b0395909516604084015250506060015292915050565b600181811c9082168061085457607f821691505b60208210810361087457634e487b7160e01b600052602260045260246000fd5b50919050565b601f8211156108c457806000526020600020601f840160051c810160208510156108a15750805b601f840160051c820191505b818110156108c157600081556001016108ad565b50505b505050565b815167ffffffffffffffff8111156108e3576108e361058e565b6108f7816108f18454610840565b8461087a565b6020601f82116001811461092b57600083156109135750848201515b600019600385901b1c1916600184901b1784556108c1565b600084815260208120601f198516915b8281101561095b578785015182556020948501946001909201910161093b565b50848210156109795786840151600019600387901b60f8161c191681555b50505050600190811b01905550565b634e487b7160e01b600052603260045260246000fdfe608060405234801561001057600080fd5b50604051612ac0380380612ac083398101604081905261002f91610352565b8383600361003d838261046c565b50600461004a828261046c565b5050506001600160a01b03821661009a5760405162461bcd60e51b815260206004820152600f60248201526e496e76616c6964206164647265737360881b60448201526064015b60405180910390fd5b60006100a86012600a610629565b6100b390606461063f565b90506100bf8382610135565b60408051606081018252600680548083526001600160a01b039687166020808501918252848601968752600092835260059052939020915182559151600180830180546001600160a01b031916929097169190911790955591516002909201919091558054909201909155600b55506106699050565b6001600160a01b03821661015f5760405163ec442f0560e01b815260006004820152602401610091565b61016b6000838361016f565b5050565b6001600160a01b03831661019a57806002600082825461018f9190610656565b9091555061020c9050565b6001600160a01b038316600090815260208190526040902054818110156101ed5760405163391434e360e21b81526001600160a01b03851660048201526024810182905260448101839052606401610091565b6001600160a01b03841660009081526020819052604090209082900390555b6001600160a01b03821661022857600280548290039055610247565b6001600160a01b03821660009081526020819052604090208054820190555b816001600160a01b0316836001600160a01b03167fddf252ad1be2c89b69c2b068fc378daa952ba7f163c4a11628f55a4df523b3ef8360405161028c91815260200190565b60405180910390a3505050565b634e487b7160e01b600052604160045260246000fd5b600082601f8301126102c057600080fd5b81516001600160401b038111156102d9576102d9610299565b604051601f8201601f19908116603f011681016001600160401b038111828210171561030757610307610299565b60405281815283820160200185101561031f57600080fd5b60005b8281101561033e57602081860181015183830182015201610322565b506000918101602001919091529392505050565b6000806000806080858703121561036857600080fd5b84516001600160401b0381111561037e57600080fd5b61038a878288016102af565b602087015190955090506001600160401b038111156103a857600080fd5b6103b4878288016102af565b604087015190945090506001600160a01b03811681146103d357600080fd5b6060959095015193969295505050565b600181811c908216806103f757607f821691505b60208210810361041757634e487b7160e01b600052602260045260246000fd5b50919050565b601f82111561046757806000526020600020601f840160051c810160208510156104445750805b601f840160051c820191505b818110156104645760008155600101610450565b50505b505050565b81516001600160401b0381111561048557610485610299565b6104998161049384546103e3565b8461041d565b6020601f8211600181146104cd57600083156104b55750848201515b600019600385901b1c1916600184901b178455610464565b600084815260208120601f198516915b828110156104fd57878501518255602094850194600190920191016104dd565b508482101561051b5786840151600019600387901b60f8161c191681555b50505050600190811b01905550565b634e487b7160e01b600052601160045260246000fd5b6001815b600184111561057b5780850481111561055f5761055f61052a565b600184161561056d57908102905b60019390931c928002610544565b935093915050565b60008261059257506001610623565b8161059f57506000610623565b81600181146105b557600281146105bf576105db565b6001915050610623565b60ff8411156105d0576105d061052a565b50506001821b610623565b5060208310610133831016604e8410600b84101617156105fe575081810a610623565b61060b6000198484610540565b806000190482111561061f5761061f61052a565b0290505b92915050565b600061063860ff841683610583565b9392505050565b80820281158282048414176106235761062361052a565b808201808211156106235761062361052a565b612448806106786000396000f3fe608060405234801561001057600080fd5b50600436106101a95760003560e01c8063539170b2116100f957806398951b5611610097578063c544be1f11610071578063c544be1f14610466578063c7f758a81461046f578063cceb68f51461048f578063dd62ed3e146104a457600080fd5b806398951b561461042d578063a9059cbb14610440578063b30b631f1461045357600080fd5b806379cc6790116100d357806379cc6790146103d15780638253951a146103e457806385a6a0911461041257806395d89b411461042557600080fd5b8063539170b21461033857806370a082311461034d5780637427a40c1461037657600080fd5b806318160ddd11610166578063313ce56711610140578063313ce5671461029057806342966c681461029f578063445e48fc146102b25780634cd371ed146102bb57600080fd5b806318160ddd1461025557806320e63c6b1461025d57806323b872dd1461027d57600080fd5b80630121871f146101ae578063013cf08b146101c357806306fdde03146101f3578063095ea7b3146102085780630a9f46ad1461022b5780630d61b51914610242575b600080fd5b6101c16101bc366004611a1f565b6104dd565b005b6101d66101d1366004611b2f565b610840565b6040516101ea989796959493929190611b8e565b60405180910390f35b6101fb6109a0565b6040516101ea9190611bf3565b61021b610216366004611c22565b610a32565b60405190151581526020016101ea565b61023460085481565b6040519081526020016101ea565b6101c1610250366004611b2f565b610a4c565b600254610234565b61027061026b366004611b2f565b610ca4565b6040516101ea9190611c4e565b61021b61028b366004611cc2565b610dc8565b604051601281526020016101ea565b6101c16102ad366004611b2f565b610dec565b610234600b5481565b6103086102c9366004611d03565b6009602090815260009283526040808420909152908252902080546001820154600283015460039093015491926001600160a01b039182169291169084565b6040516101ea94939291909384526001600160a01b03928316602085015291166040830152606082015260800190565b610340610df9565b6040516101ea9190611d25565b61023461035b366004611d7f565b6001600160a01b031660009081526020819052604090205490565b6103ae610384366004611b2f565b60056020526000908152604090208054600182015460029092015490916001600160a01b03169083565b604080519384526001600160a01b039092166020840152908201526060016101ea565b6101c16103df366004611c22565b610ef0565b61021b6103f2366004611d9c565b600a60209081526000928352604080842090915290825290205460ff1681565b6101c1610420366004611b2f565b610f09565b6101fb610fd4565b6101c161043b366004611b2f565b610fe3565b61021b61044e366004611c22565b6110d5565b6101c1610461366004611dcc565b6110e3565b61023460065481565b61048261047d366004611b2f565b611269565b6040516101ea9190611f04565b610497611404565b6040516101ea9190611f17565b6102346104b2366004611f7c565b6001600160a01b03918216600090815260016020908152604080832093909416825291909152205490565b8961051e5760405162461bcd60e51b815260206004820152600c60248201526b496e76616c6964206461746160a01b60448201526064015b60405180910390fd5b858414801561052c57508582145b801561053757508581145b6105775760405162461bcd60e51b8152602060048201526011602482015270496e76616c69642064696c7574696f6e7360781b6044820152606401610515565b6040518061010001604052806008548152602001336001600160a01b031681526020018a8a8080601f016020809104026020016040519081016040528093929190818152602001838380828437600092019190915250505090825250604080516020601f8f018190048102820181019092528d815291810191908e908e908190840183828082843760009201829052509385525050506020808301829052426040808501919091526060840183905260809093018590526008548252600781529082902083518155908301516001820180546001600160a01b0319166001600160a01b039092169190911790559082015160028201906106779082612042565b506060820151600382019061068c9082612042565b50608082015160048201805460ff191691151591909117905560a0820151600582015560c0820151600682015560e09091015160079091015560005b818110156107d75760405180608001604052804281526020018787848181106106f3576106f3612100565b90506020020160208101906107089190611d7f565b6001600160a01b0316815260200189898481811061072857610728612100565b905060200201602081019061073d9190611d7f565b6001600160a01b0316815260200185858481811061075d5761075d612100565b6020908102929092013590925260085460009081526009825260408082208683528352908190208451815591840151600180840180546001600160a01b039384166001600160a01b0319918216179091559286015160028501805491909316931692909217905560609093015160039091015550016106c8565b50600880546001908101918290556107ee9161212c565b336001600160a01b03167f2870796de6253e1c899bb5708253104bb7d5bad09edb5764c9d5d3eac0e6b2438d8d8560405161082b9392919061213f565b60405180910390a35050505050505050505050565b60076020526000908152604090208054600182015460028301805492936001600160a01b039092169261087290611fc0565b80601f016020809104026020016040519081016040528092919081815260200182805461089e90611fc0565b80156108eb5780601f106108c0576101008083540402835291602001916108eb565b820191906000526020600020905b8154815290600101906020018083116108ce57829003601f168201915b50505050509080600301805461090090611fc0565b80601f016020809104026020016040519081016040528092919081815260200182805461092c90611fc0565b80156109795780601f1061094e57610100808354040283529160200191610979565b820191906000526020600020905b81548152906001019060200180831161095c57829003601f168201915b50505050600483015460058401546006850154600790950154939460ff9092169390925088565b6060600380546109af90611fc0565b80601f01602080910402602001604051908101604052809291908181526020018280546109db90611fc0565b8015610a285780601f106109fd57610100808354040283529160200191610a28565b820191906000526020600020905b815481529060010190602001808311610a0b57829003601f168201915b5050505050905090565b600033610a4081858561161f565b60019150505b92915050565b806008548110610a6e5760405162461bcd60e51b815260040161051590612178565b600b5460008381526007602052604090206006015483911115610aca5760405162461bcd60e51b81526020600482015260146024820152734e6f7420656e6f75676820617070726f76616c7360601b6044820152606401610515565b60008381526007602052604090206004015460ff1615610b2c5760405162461bcd60e51b815260206004820152601960248201527f50726f706f73616c20616c7265616479206578656375746564000000000000006044820152606401610515565b6000838152600760208190526040822060048101805460ff191660011790550154905b81811015610c7057600085815260096020908152604080832084845282529182902082516080810184528154815260018201546001600160a01b0390811682850152600283015481168286019081526003909301546060808401919091528551908101865260065481529251169282019290925290918101610bd36012600a612296565b8360600151610be291906122a5565b905260065460009081526005602090815260409182902083518155838201516001820180546001600160a01b0319166001600160a01b03909216919091179055928201516002909301929092559082015190820151610c5d91906012610c4990600a612296565b8460600151610c5891906122a5565b611631565b5060068054600190810190915501610b4f565b50604051849033907fb8d301cd5f98b8a684e9fcee3fec6abc97ee218ec8794e9aed3f791e40fb465890600090a350505050565b600081815260076020819052604082200154606091906001600160401b03811115610cd157610cd1611faa565b604051908082528060200260200182016040528015610d2357816020015b604080516080810182526000808252602080830182905292820181905260608201528252600019909201910181610cef5790505b50905060005b60008481526007602081905260409091200154811015610dc157600084815260096020908152604080832084845282529182902082516080810184528154815260018201546001600160a01b039081169382019390935260028201549092169282019290925260039091015460608201528251839083908110610dae57610dae612100565b6020908102919091010152600101610d29565b5092915050565b600033610dd6858285611690565b610de1858585611631565b506001949350505050565b610df6338261170e565b50565b606060006006546001600160401b03811115610e1757610e17611faa565b604051908082528060200260200182016040528015610e7557816020015b610e6260405180606001604052806000815260200160006001600160a01b03168152602001600081525090565b815260200190600190039081610e355790505b50905060005b600654811015610eea5760008181526005602090815260409182902082516060810184528154815260018201546001600160a01b03169281019290925260020154918101919091528251839083908110610ed757610ed7612100565b6020908102919091010152600101610e7b565b50919050565b610efb823383611690565b610f05828261170e565b5050565b806008548110610f2b5760405162461bcd60e51b815260040161051590612178565b6000828152600a6020908152604080832033845290915290205460ff161515600114610f885760405162461bcd60e51b815260206004820152600c60248201526b139bdd08185c1c1c9bdd995960a21b6044820152606401610515565b6000828152600a60209081526040808320338085529252808320805460ff191690555184927fb8b1cbdd07c030bed9e01f4ee5465e3a3fd2aa8f7135c84467c0f3cf203925eb91a35050565b6060600480546109af90611fc0565b8060085481106110055760405162461bcd60e51b815260040161051590612178565b6000828152600a6020908152604080832033845290915290205460ff16156110625760405162461bcd60e51b815260206004820152601060248201526f105b1c9958591e48185c1c1c9bdd995960821b6044820152606401610515565b6000828152600a602090815260408083203384528252808320805460ff191660011790558483526007909152812060060180549161109f836122bc565b9091555050604051829033907f12c8d6025943157cbcb4e904b3e3d97d2ac7eae9f61f343b2e7cb23be24bdbb790600090a35050565b600033610a40818585611631565b8460085481106111055760405162461bcd60e51b815260040161051590612178565b6000868152600760205260409020600101546001600160a01b0316331461116e5760405162461bcd60e51b815260206004820152601d60248201527f4e6f7420746865206f776e6572206f66207468652070726f706f73616c0000006044820152606401610515565b836111aa5760405162461bcd60e51b815260206004820152600c60248201526b496e76616c6964206461746160a01b6044820152606401610515565b60008681526007602052604090206003016111c68587836122d5565b5060005b82811015611220578383828181106111e4576111e4612100565b6008546000908152600960209081526040808320878452909152902060809091029290920191905061121682826123b4565b50506001016111ca565b50604051869033907f94dd2c5aa152df4ccb2b1cce8182b3a247ff69fc884e41b747e7c891f6215c37906112599089908990889061213f565b60405180910390a3505050505050565b611271611943565b6000828152600760209081526040918290208251610100810184528154815260018201546001600160a01b03169281019290925260028101805492939192918401916112bc90611fc0565b80601f01602080910402602001604051908101604052809291908181526020018280546112e890611fc0565b80156113355780601f1061130a57610100808354040283529160200191611335565b820191906000526020600020905b81548152906001019060200180831161131857829003601f168201915b5050505050815260200160038201805461134e90611fc0565b80601f016020809104026020016040519081016040528092919081815260200182805461137a90611fc0565b80156113c75780601f1061139c576101008083540402835291602001916113c7565b820191906000526020600020905b8154815290600101906020018083116113aa57829003601f168201915b5050509183525050600482015460ff1615156020820152600582015460408201526006820154606082015260079091015460809091015292915050565b606060006008546001600160401b0381111561142257611422611faa565b60405190808252806020026020018201604052801561145b57816020015b611448611943565b8152602001906001900390816114405790505b50905060005b600854811015610eea576000818152600760209081526040918290208251610100810184528154815260018201546001600160a01b03169281019290925260028101805492939192918401916114b690611fc0565b80601f01602080910402602001604051908101604052809291908181526020018280546114e290611fc0565b801561152f5780601f106115045761010080835404028352916020019161152f565b820191906000526020600020905b81548152906001019060200180831161151257829003601f168201915b5050505050815260200160038201805461154890611fc0565b80601f016020809104026020016040519081016040528092919081815260200182805461157490611fc0565b80156115c15780601f10611596576101008083540402835291602001916115c1565b820191906000526020600020905b8154815290600101906020018083116115a457829003601f168201915b5050509183525050600482015460ff16151560208201526005820154604082015260068201546060820152600790910154608090910152825183908390811061160c5761160c612100565b6020908102919091010152600101611461565b61162c8383836001611744565b505050565b6001600160a01b03831661165b57604051634b637e8f60e11b815260006004820152602401610515565b6001600160a01b0382166116855760405163ec442f0560e01b815260006004820152602401610515565b61162c838383611819565b6001600160a01b03838116600090815260016020908152604080832093861683529290522054600019811461170857818110156116f957604051637dc7a0d960e11b81526001600160a01b03841660048201526024810182905260448101839052606401610515565b61170884848484036000611744565b50505050565b6001600160a01b03821661173857604051634b637e8f60e11b815260006004820152602401610515565b610f0582600083611819565b6001600160a01b03841661176e5760405163e602df0560e01b815260006004820152602401610515565b6001600160a01b03831661179857604051634a1406b160e11b815260006004820152602401610515565b6001600160a01b038085166000908152600160209081526040808320938716835292905220829055801561170857826001600160a01b0316846001600160a01b03167f8c5be1e5ebec7d5bd14f71427d1e84f3dd0314c0f7b2291e5b200ac8c7c3b9258460405161180b91815260200190565b60405180910390a350505050565b6001600160a01b03831661184457806002600082825461183991906123ff565b909155506118b69050565b6001600160a01b038316600090815260208190526040902054818110156118975760405163391434e360e21b81526001600160a01b03851660048201526024810182905260448101839052606401610515565b6001600160a01b03841660009081526020819052604090209082900390555b6001600160a01b0382166118d2576002805482900390556118f1565b6001600160a01b03821660009081526020819052604090208054820190555b816001600160a01b0316836001600160a01b03167fddf252ad1be2c89b69c2b068fc378daa952ba7f163c4a11628f55a4df523b3ef8360405161193691815260200190565b60405180910390a3505050565b6040518061010001604052806000815260200160006001600160a01b0316815260200160608152602001606081526020016000151581526020016000815260200160008152602001600081525090565b60008083601f8401126119a557600080fd5b5081356001600160401b038111156119bc57600080fd5b6020830191508360208285010111156119d457600080fd5b9250929050565b60008083601f8401126119ed57600080fd5b5081356001600160401b03811115611a0457600080fd5b6020830191508360208260051b85010111156119d457600080fd5b600080600080600080600080600080600060c08c8e031215611a4057600080fd5b8b356001600160401b03811115611a5657600080fd5b611a628e828f01611993565b909c509a505060208c01356001600160401b03811115611a8157600080fd5b611a8d8e828f01611993565b909a5098505060408c01356001600160401b03811115611aac57600080fd5b611ab88e828f016119db565b90985096505060608c01356001600160401b03811115611ad757600080fd5b611ae38e828f016119db565b90965094505060808c01356001600160401b03811115611b0257600080fd5b611b0e8e828f016119db565b9c9f9b9e50999c989b979a969995989497959660a090950135949350505050565b600060208284031215611b4157600080fd5b5035919050565b6000815180845260005b81811015611b6e57602081850181015186830182015201611b52565b506000602082860101526020601f19601f83011685010191505092915050565b8881526001600160a01b038816602082015261010060408201819052600090611bb990830189611b48565b8281036060840152611bcb8189611b48565b9615156080840152505060a081019390935260c083019190915260e090910152949350505050565b602081526000611c066020830184611b48565b9392505050565b6001600160a01b0381168114610df657600080fd5b60008060408385031215611c3557600080fd5b8235611c4081611c0d565b946020939093013593505050565b602080825282518282018190526000918401906040840190835b81811015611cb7578351805184526020808201516001600160a01b0390811682870152604080840151909116908601526060918201519185019190915290930192608090920191600101611c68565b509095945050505050565b600080600060608486031215611cd757600080fd5b8335611ce281611c0d565b92506020840135611cf281611c0d565b929592945050506040919091013590565b60008060408385031215611d1657600080fd5b50508035926020909101359150565b602080825282518282018190526000918401906040840190835b81811015611cb7578351805184526020808201516001600160a01b0316818601526040918201519185019190915290930192606090920191600101611d3f565b600060208284031215611d9157600080fd5b8135611c0681611c0d565b60008060408385031215611daf57600080fd5b823591506020830135611dc181611c0d565b809150509250929050565b600080600080600060608688031215611de457600080fd5b8535945060208601356001600160401b03811115611e0157600080fd5b611e0d88828901611993565b90955093505060408601356001600160401b03811115611e2c57600080fd5b8601601f81018813611e3d57600080fd5b80356001600160401b03811115611e5357600080fd5b8860208260071b8401011115611e6857600080fd5b959894975092955050506020019190565b8051825260018060a01b036020820151166020830152600060408201516101006040850152611eac610100850182611b48565b905060608301518482036060860152611ec58282611b48565b9150506080830151611edb608086018215159052565b5060a083015160a085015260c083015160c085015260e083015160e08501528091505092915050565b602081526000611c066020830184611e79565b6000602082016020835280845180835260408501915060408160051b86010192506020860160005b82811015611f7057603f19878603018452611f5b858351611e79565b94506020938401939190910190600101611f3f565b50929695505050505050565b60008060408385031215611f8f57600080fd5b8235611f9a81611c0d565b91506020830135611dc181611c0d565b634e487b7160e01b600052604160045260246000fd5b600181811c90821680611fd457607f821691505b602082108103610eea57634e487b7160e01b600052602260045260246000fd5b601f82111561162c57806000526020600020601f840160051c8101602085101561201b5750805b601f840160051c820191505b8181101561203b5760008155600101612027565b5050505050565b81516001600160401b0381111561205b5761205b611faa565b61206f816120698454611fc0565b84611ff4565b6020601f8211600181146120a3576000831561208b5750848201515b600019600385901b1c1916600184901b17845561203b565b600084815260208120601f198516915b828110156120d357878501518255602094850194600190920191016120b3565b50848210156120f15786840151600019600387901b60f8161c191681555b50505050600190811b01905550565b634e487b7160e01b600052603260045260246000fd5b634e487b7160e01b600052601160045260246000fd5b81810381811115610a4657610a46612116565b604081528260408201528284606083013760006060848301015260006060601f19601f8601168301019050826020830152949350505050565b60208082526017908201527f70726f706f73616c20646f6573206e6f74206578697374000000000000000000604082015260600190565b6001815b60018411156121ea578085048111156121ce576121ce612116565b60018416156121dc57908102905b60019390931c9280026121b3565b935093915050565b60008261220157506001610a46565b8161220e57506000610a46565b8160018114612224576002811461222e5761224a565b6001915050610a46565b60ff84111561223f5761223f612116565b50506001821b610a46565b5060208310610133831016604e8410600b841016171561226d575081810a610a46565b61227a60001984846121af565b806000190482111561228e5761228e612116565b029392505050565b6000611c0660ff8416836121f2565b8082028115828204841417610a4657610a46612116565b6000600182016122ce576122ce612116565b5060010190565b6001600160401b038311156122ec576122ec611faa565b612300836122fa8354611fc0565b83611ff4565b6000601f841160018114612334576000851561231c5750838201355b600019600387901b1c1916600186901b17835561203b565b600083815260209020601f19861690835b828110156123655786850135825560209485019460019092019101612345565b50868210156123825760001960f88860031b161c19848701351681555b505060018560011b0183555050505050565b80546001600160a01b0319166001600160a01b0392909216919091179055565b8135815560208201356123c681611c0d565b6123d38160018401612394565b5060408201356123e281611c0d565b6123ef8160028401612394565b5060609190910135600390910155565b80820180821115610a4657610a4661211656fea2646970667358221220922f6af4a0b2047b5fbcaabf2c484d206d2e52eabfea46ce3a6a5a9797e3343364736f6c634300081a0033a26469706673582212204d990ddcc5ded1195496fca17e686a777df91aeea242e1c7f01ef409c8297aaf64736f6c634300081a0033","linkReferences":{}},"methodIdentifiers":{"companyTokens(uint256)":"6d4c6cad","companyTokensCount()":"a80bb9d6","createCompanyToken(string,string,uint256)":"5bf5e1a3","getAllCompanyTokens()":"ba6f1f5b","getCompanyToken(uint256)":"eae8675d"},"id":7}